{
  "contractName": "Aridrop",
  "abi": [
    {
      "inputs": [
        {
          "internalType": "contract IERC20",
          "name": "_contractToken",
          "type": "address"
        }
      ],
      "stateMutability": "nonpayable",
      "type": "constructor"
    },
    {
      "anonymous": false,
      "inputs": [
        {
          "indexed": true,
          "internalType": "address",
          "name": "oldOwner",
          "type": "address"
        },
        {
          "indexed": true,
          "internalType": "address",
          "name": "newOwner",
          "type": "address"
        }
      ],
      "name": "OwnerSet",
      "type": "event"
    },
    {
      "inputs": [],
      "name": "AirDropStatus",
      "outputs": [
        {
          "internalType": "bool",
          "name": "",
          "type": "bool"
        }
      ],
      "stateMutability": "view",
      "type": "function"
    },
    {
      "inputs": [],
      "name": "TotalAlocated",
      "outputs": [
        {
          "internalType": "uint256",
          "name": "",
          "type": "uint256"
        }
      ],
      "stateMutability": "view",
      "type": "function"
    },
    {
      "inputs": [],
      "name": "airdropCount",
      "outputs": [
        {
          "internalType": "uint256",
          "name": "",
          "type": "uint256"
        }
      ],
      "stateMutability": "view",
      "type": "function"
    },
    {
      "inputs": [],
      "name": "leftToBeAllocated",
      "outputs": [
        {
          "internalType": "uint256",
          "name": "",
          "type": "uint256"
        }
      ],
      "stateMutability": "view",
      "type": "function"
    },
    {
      "inputs": [
        {
          "internalType": "address",
          "name": "newOwner",
          "type": "address"
        }
      ],
      "name": "changeOwner",
      "outputs": [],
      "stateMutability": "nonpayable",
      "type": "function"
    },
    {
      "inputs": [],
      "name": "getOwner",
      "outputs": [
        {
          "internalType": "address",
          "name": "",
          "type": "address"
        }
      ],
      "stateMutability": "view",
      "type": "function"
    },
    {
      "inputs": [
        {
          "internalType": "address",
          "name": "_User",
          "type": "address"
        },
        {
          "internalType": "uint256",
          "name": "_ammount",
          "type": "uint256"
        }
      ],
      "name": "AddUser",
      "outputs": [
        {
          "internalType": "bool",
          "name": "",
          "type": "bool"
        }
      ],
      "stateMutability": "nonpayable",
      "type": "function"
    },
    {
      "inputs": [
        {
          "internalType": "uint256",
          "name": "_userCount",
          "type": "uint256"
        },
        {
          "internalType": "address",
          "name": "_User",
          "type": "address"
        },
        {
          "internalType": "uint256",
          "name": "_ammount",
          "type": "uint256"
        },
        {
          "internalType": "bool",
          "name": "_exist",
          "type": "bool"
        }
      ],
      "name": "EditUser",
      "outputs": [
        {
          "internalType": "bool",
          "name": "",
          "type": "bool"
        }
      ],
      "stateMutability": "nonpayable",
      "type": "function"
    },
    {
      "inputs": [
        {
          "internalType": "uint256",
          "name": "_userCount",
          "type": "uint256"
        }
      ],
      "name": "ViewUsers",
      "outputs": [
        {
          "internalType": "address",
          "name": "",
          "type": "address"
        },
        {
          "internalType": "uint256",
          "name": "",
          "type": "uint256"
        },
        {
          "internalType": "bool",
          "name": "",
          "type": "bool"
        }
      ],
      "stateMutability": "view",
      "type": "function"
    },
    {
      "inputs": [
        {
          "internalType": "contract IERC20",
          "name": "_Contract",
          "type": "address"
        }
      ],
      "name": "Change_XRC_Contract",
      "outputs": [
        {
          "internalType": "bool",
          "name": "",
          "type": "bool"
        }
      ],
      "stateMutability": "nonpayable",
      "type": "function"
    },
    {
      "inputs": [
        {
          "internalType": "bool",
          "name": "_status",
          "type": "bool"
        }
      ],
      "name": "DeployAirDrop",
      "outputs": [
        {
          "internalType": "bool",
          "name": "",
          "type": "bool"
        }
      ],
      "stateMutability": "nonpayable",
      "type": "function"
    },
    {
      "inputs": [
        {
          "internalType": "uint256",
          "name": "_countID",
          "type": "uint256"
        }
      ],
      "name": "RedeemAirdrop",
      "outputs": [
        {
          "internalType": "bool",
          "name": "",
          "type": "bool"
        }
      ],
      "stateMutability": "nonpayable",
      "type": "function"
    },
    {
      "inputs": [],
      "name": "viewBalanceInContract",
      "outputs": [
        {
          "internalType": "uint256",
          "name": "",
          "type": "uint256"
        }
      ],
      "stateMutability": "view",
      "type": "function"
    }
  ],
  "bytecode": "0x6080604052600060015560006002553480156200001b57600080fd5b5060405162001694380380620016948339818101604052810190620000419190620001c2565b80600560006101000a81548173ffffffffffffffffffffffffffffffffffffffff021916908373ffffffffffffffffffffffffffffffffffffffff160217905550336000806101000a81548173ffffffffffffffffffffffffffffffffffffffff021916908373ffffffffffffffffffffffffffffffffffffffff16021790555060008054906101000a900473ffffffffffffffffffffffffffffffffffffffff1673ffffffffffffffffffffffffffffffffffffffff16600073ffffffffffffffffffffffffffffffffffffffff167f342827c97908e5e2f71151c08502a66d44b6f758e3ac2f1de95f02eb95f0a73560405160405180910390a350620001f4565b600080fd5b600073ffffffffffffffffffffffffffffffffffffffff82169050919050565b6000620001768262000149565b9050919050565b60006200018a8262000169565b9050919050565b6200019c816200017d565b8114620001a857600080fd5b50565b600081519050620001bc8162000191565b92915050565b600060208284031215620001db57620001da62000144565b5b6000620001eb84828501620001ab565b91505092915050565b61149080620002046000396000f3fe608060405234801561001057600080fd5b50600436106100cf5760003560e01c8063a6f9dae11161008c578063c83c26ef11610066578063c83c26ef14610228578063e1e46cba14610258578063e952f74f14610276578063f508442614610294576100cf565b8063a6f9dae1146101ac578063addfeee5146101c8578063c24a58a1146101f8576100cf565b806301f3978f146100d4578063468c3893146100f25780636932ac5f1461012257806385f0d3ca14610152578063893d20e8146101705780639f48e8ad1461018e575b600080fd5b6100dc6102c6565b6040516100e99190610e42565b60405180910390f35b61010c60048036038101906101079190610f24565b6102cc565b6040516101199190610f9a565b60405180910390f35b61013c60048036038101906101379190610fb5565b610479565b6040516101499190610f9a565b60405180910390f35b61015a610691565b6040516101679190610f9a565b60405180910390f35b6101786106a4565b6040516101859190611004565b60405180910390f35b6101966106cd565b6040516101a39190610e42565b60405180910390f35b6101c660048036038101906101c1919061101f565b6106d3565b005b6101e260048036038101906101dd919061104c565b610874565b6040516101ef9190610f9a565b60405180910390f35b610212600480360381019061020d9190611079565b610a1e565b60405161021f9190610f9a565b60405180910390f35b610242600480360381019061023d91906110e4565b610b36565b60405161024f9190610f9a565b60405180910390f35b610260610c67565b60405161026d9190610e42565b60405180910390f35b61027e610d9f565b60405161028b9190610e42565b60405180910390f35b6102ae60048036038101906102a9919061104c565b610da5565b6040516102bd93929190611111565b60405180910390f35b60045481565b60008060009054906101000a900473ffffffffffffffffffffffffffffffffffffffff1673ffffffffffffffffffffffffffffffffffffffff163373ffffffffffffffffffffffffffffffffffffffff161461035d576040517f08c379a0000000000000000000000000000000000000000000000000000000008152600401610354906111a5565b60405180910390fd5b60001515600360009054906101000a900460ff161515146103b3576040517f08c379a00000000000000000000000000000000000000000000000000000000081526004016103aa90611211565b60405180910390fd5b60405180606001604052808573ffffffffffffffffffffffffffffffffffffffff1681526020018481526020018315158152506006600087815260200190815260200160002060008201518160000160006101000a81548173ffffffffffffffffffffffffffffffffffffffff021916908373ffffffffffffffffffffffffffffffffffffffff1602179055506020820151816001015560408201518160020160006101000a81548160ff02191690831515021790555090505060019050949350505050565b60008060009054906101000a900473ffffffffffffffffffffffffffffffffffffffff1673ffffffffffffffffffffffffffffffffffffffff163373ffffffffffffffffffffffffffffffffffffffff161461050a576040517f08c379a0000000000000000000000000000000000000000000000000000000008152600401610501906111a5565b60405180910390fd5b60001515600360009054906101000a900460ff16151514610560576040517f08c379a000000000000000000000000000000000000000000000000000000000815260040161055790611211565b60405180910390fd5b60025461056b610c67565b6105759190611260565b600481905550600060045411801561058f57506004548211155b156106865760405180606001604052808473ffffffffffffffffffffffffffffffffffffffff1681526020018381526020016001151581525060066000600154815260200190815260200160002060008201518160000160006101000a81548173ffffffffffffffffffffffffffffffffffffffff021916908373ffffffffffffffffffffffffffffffffffffffff1602179055506020820151816001015560408201518160020160006101000a81548160ff0219169083151502179055509050506001600081548092919061066490611294565b91905055508160025461067791906112dd565b6002819055506001905061068b565b600090505b92915050565b600360009054906101000a900460ff1681565b60008060009054906101000a900473ffffffffffffffffffffffffffffffffffffffff16905090565b60025481565b60008054906101000a900473ffffffffffffffffffffffffffffffffffffffff1673ffffffffffffffffffffffffffffffffffffffff163373ffffffffffffffffffffffffffffffffffffffff1614610761576040517f08c379a0000000000000000000000000000000000000000000000000000000008152600401610758906111a5565b60405180910390fd5b60001515600360009054906101000a900460ff161515146107b7576040517f08c379a00000000000000000000000000000000000000000000000000000000081526004016107ae90611211565b60405180910390fd5b8073ffffffffffffffffffffffffffffffffffffffff1660008054906101000a900473ffffffffffffffffffffffffffffffffffffffff1673ffffffffffffffffffffffffffffffffffffffff167f342827c97908e5e2f71151c08502a66d44b6f758e3ac2f1de95f02eb95f0a73560405160405180910390a3806000806101000a81548173ffffffffffffffffffffffffffffffffffffffff021916908373ffffffffffffffffffffffffffffffffffffffff16021790555050565b600060011515600360009054906101000a900460ff161515146108cc576040517f08c379a00000000000000000000000000000000000000000000000000000000081526004016108c39061137f565b60405180910390fd5b3373ffffffffffffffffffffffffffffffffffffffff166006600084815260200190815260200160002060000160009054906101000a900473ffffffffffffffffffffffffffffffffffffffff1673ffffffffffffffffffffffffffffffffffffffff161415610a1457600560009054906101000a900473ffffffffffffffffffffffffffffffffffffffff1673ffffffffffffffffffffffffffffffffffffffff166323b872dd303360066000878152602001908152602001600020600101546040518463ffffffff1660e01b81526004016109ab9392919061139f565b6020604051808303816000875af11580156109ca573d6000803e3d6000fd5b505050506040513d601f19601f820116820180604052508101906109ee91906113eb565b506000600660008481526020019081526020016000206001018190555060019050610a19565b600090505b919050565b60008060009054906101000a900473ffffffffffffffffffffffffffffffffffffffff1673ffffffffffffffffffffffffffffffffffffffff163373ffffffffffffffffffffffffffffffffffffffff1614610aaf576040517f08c379a0000000000000000000000000000000000000000000000000000000008152600401610aa6906111a5565b60405180910390fd5b60001515600360009054906101000a900460ff16151514610b05576040517f08c379a0000000000000000000000000000000000000000000000000000000008152600401610afc90611211565b60405180910390fd5b81600360006101000a81548160ff021916908315150217905550600360009054906101000a900460ff169050919050565b60008060009054906101000a900473ffffffffffffffffffffffffffffffffffffffff1673ffffffffffffffffffffffffffffffffffffffff163373ffffffffffffffffffffffffffffffffffffffff1614610bc7576040517f08c379a0000000000000000000000000000000000000000000000000000000008152600401610bbe906111a5565b60405180910390fd5b60001515600360009054906101000a900460ff16151514610c1d576040517f08c379a0000000000000000000000000000000000000000000000000000000008152600401610c1490611211565b60405180910390fd5b81600560006101000a81548173ffffffffffffffffffffffffffffffffffffffff021916908373ffffffffffffffffffffffffffffffffffffffff16021790555060019050919050565b60008060009054906101000a900473ffffffffffffffffffffffffffffffffffffffff1673ffffffffffffffffffffffffffffffffffffffff163373ffffffffffffffffffffffffffffffffffffffff1614610cf8576040517f08c379a0000000000000000000000000000000000000000000000000000000008152600401610cef906111a5565b60405180910390fd5b6000600560009054906101000a900473ffffffffffffffffffffffffffffffffffffffff1673ffffffffffffffffffffffffffffffffffffffff166370a08231306040518263ffffffff1660e01b8152600401610d559190611004565b602060405180830381865afa158015610d72573d6000803e3d6000fd5b505050506040513d601f19601f82011682018060405250810190610d96919061142d565b90508091505090565b60015481565b60008060006006600085815260200190815260200160002060000160009054906101000a900473ffffffffffffffffffffffffffffffffffffffff1660066000868152602001908152602001600020600101546006600087815260200190815260200160002060020160009054906101000a900460ff169250925092509193909250565b6000819050919050565b610e3c81610e29565b82525050565b6000602082019050610e576000830184610e33565b92915050565b600080fd5b610e6b81610e29565b8114610e7657600080fd5b50565b600081359050610e8881610e62565b92915050565b600073ffffffffffffffffffffffffffffffffffffffff82169050919050565b6000610eb982610e8e565b9050919050565b610ec981610eae565b8114610ed457600080fd5b50565b600081359050610ee681610ec0565b92915050565b60008115159050919050565b610f0181610eec565b8114610f0c57600080fd5b50565b600081359050610f1e81610ef8565b92915050565b60008060008060808587031215610f3e57610f3d610e5d565b5b6000610f4c87828801610e79565b9450506020610f5d87828801610ed7565b9350506040610f6e87828801610e79565b9250506060610f7f87828801610f0f565b91505092959194509250565b610f9481610eec565b82525050565b6000602082019050610faf6000830184610f8b565b92915050565b60008060408385031215610fcc57610fcb610e5d565b5b6000610fda85828601610ed7565b9250506020610feb85828601610e79565b9150509250929050565b610ffe81610eae565b82525050565b60006020820190506110196000830184610ff5565b92915050565b60006020828403121561103557611034610e5d565b5b600061104384828501610ed7565b91505092915050565b60006020828403121561106257611061610e5d565b5b600061107084828501610e79565b91505092915050565b60006020828403121561108f5761108e610e5d565b5b600061109d84828501610f0f565b91505092915050565b60006110b182610eae565b9050919050565b6110c1816110a6565b81146110cc57600080fd5b50565b6000813590506110de816110b8565b92915050565b6000602082840312156110fa576110f9610e5d565b5b6000611108848285016110cf565b91505092915050565b60006060820190506111266000830186610ff5565b6111336020830185610e33565b6111406040830184610f8b565b949350505050565b600082825260208201905092915050565b7f43616c6c6572206973206e6f74206f776e657200000000000000000000000000600082015250565b600061118f601383611148565b915061119a82611159565b602082019050919050565b600060208201905081810360008301526111be81611182565b9050919050565b7f41697264726f7020737461747573206d7573742062652066616c736500000000600082015250565b60006111fb601c83611148565b9150611206826111c5565b602082019050919050565b6000602082019050818103600083015261122a816111ee565b9050919050565b7f4e487b7100000000000000000000000000000000000000000000000000000000600052601160045260246000fd5b600061126b82610e29565b915061127683610e29565b92508282101561128957611288611231565b5b828203905092915050565b600061129f82610e29565b91507fffffffffffffffffffffffffffffffffffffffffffffffffffffffffffffffff8214156112d2576112d1611231565b5b600182019050919050565b60006112e882610e29565b91506112f383610e29565b9250827fffffffffffffffffffffffffffffffffffffffffffffffffffffffffffffffff0382111561132857611327611231565b5b828201905092915050565b7f41697264726f7020737461747573206d75737420626520747275650000000000600082015250565b6000611369601b83611148565b915061137482611333565b602082019050919050565b600060208201905081810360008301526113988161135c565b9050919050565b60006060820190506113b46000830186610ff5565b6113c16020830185610ff5565b6113ce6040830184610e33565b949350505050565b6000815190506113e581610ef8565b92915050565b60006020828403121561140157611400610e5d565b5b600061140f848285016113d6565b91505092915050565b60008151905061142781610e62565b92915050565b60006020828403121561144357611442610e5d565b5b600061145184828501611418565b9150509291505056fea2646970667358221220208e640d5cedc4063aa40ef001854547bd7720b6fa0336fcf951493f5870dfd164736f6c634300080a0033",
  "immutableReferences": {},
  "source": "pragma solidity ^0.8.10;\n// SPDX-License-Identifier: MIT\nimport \"./XRC20.sol\";\n\ncontract Aridrop{\n    //contract variables\n    address private owner;\n    uint public airdropCount=0;\n\n    uint public TotalAlocated=0;\n    bool public AirDropStatus;\n    uint public leftToBeAllocated;\n\n    IERC20 private XRC_Contract;\n    \n    event OwnerSet(address indexed oldOwner, address indexed newOwner);\n    // check owner of airdrop contract\n    modifier isOwner() {\n        require(msg.sender == owner, \"Caller is not owner\");\n        _;\n    }\n    //executes after airdrop\n    modifier preAirdrop{\n        require(AirDropStatus == false, \"Airdrop status must be false\");\n        _;\n    }\n    //executes before airdrop\n    modifier postAirdrop{\n        require(AirDropStatus == true,\"Airdrop status must be true\");\n        _;\n    }\n    //stuct mapping int\n    mapping(uint => AirDropDB) userAirdrop;\n    struct AirDropDB{\n        address User;\n        uint ammount;\n        bool exist;\n    }\n    constructor(IERC20 _contractToken) {\n        XRC_Contract = _contractToken;\n        owner = msg.sender;\n        emit OwnerSet(address(0), owner);\n    }\n    //change owner\n    function changeOwner(address newOwner) public isOwner preAirdrop {\n        emit OwnerSet(owner, newOwner);\n        owner = newOwner;\n    }\n    //get owner\n    function getOwner() external view returns(address) {\n        return owner;\n    }\n    //Add User to contract\n    function AddUser(address _User,uint _ammount)public isOwner preAirdrop returns(bool){\n        leftToBeAllocated = viewBalanceInContract() - TotalAlocated;\n        if(leftToBeAllocated >0 && _ammount <= leftToBeAllocated){\n            userAirdrop[airdropCount] = AirDropDB(_User,_ammount,true);\n            airdropCount++;\n            TotalAlocated = TotalAlocated + _ammount;            \n            return true;\n        } else {\n            return false;\n        }\n    }\n    //Edit Airdrop users\n    function EditUser(uint _userCount,address _User,uint _ammount,bool _exist)public isOwner preAirdrop returns(bool){\n        userAirdrop[_userCount] = AirDropDB(_User,_ammount,_exist);\n        return true;\n    }\n    //view accounts with pledged amounts\n    function ViewUsers(uint _userCount) public view returns(address,uint,bool){\n        return (userAirdrop[_userCount].User,userAirdrop[_userCount].ammount,userAirdrop[_userCount].exist);\n    }\n    //Set contract\n    function Change_XRC_Contract(IERC20 _Contract) public isOwner preAirdrop returns(bool){\n        XRC_Contract = _Contract;\n        return true;\n    }\n    //Deploy Airdrop\n    function DeployAirDrop(bool _status)public isOwner preAirdrop returns(bool){\n        AirDropStatus = _status;\n        return AirDropStatus;\n    }\n    //Users who were air dropped tokens can have them redeemed\n    function RedeemAirdrop(uint _countID)public postAirdrop returns(bool){\n        if(userAirdrop[_countID].User == msg.sender){\n            XRC_Contract.transferFrom(address(this),msg.sender,userAirdrop[_countID].ammount);\n            userAirdrop[_countID].ammount = 0;\n            return true;\n        } else {\n            return false;\n        }\n    }\n    //view Total totens to be airdropped\n    function viewBalanceInContract()public view isOwner returns(uint){\n        uint tokensInContract = XRC_Contract.balanceOf(address(this)); // this shows the balance of the XRC20 token in the Airdrop contract\n        return tokensInContract;\n    }\n}\n\n\n",
  "sourcePath": "/Users/Q/Documents/GitHub/XRC-Airdrop/contracts/Airdrop.sol",
  "compiler": {
    "name": "solc",
    "version": "0.8.10+commit.fc410830.Emscripten.clang"
  },
  "schemaVersion": "3.4.3",
  "updatedAt": "2022-03-08T00:47:55.506Z",
  "devdoc": {
    "kind": "dev",
    "methods": {},
    "version": 1
  },
  "userdoc": {
    "kind": "user",
    "methods": {},
    "version": 1
  }
}